S01100005350495F736C6176652E73726563AD
S11300000C942A000C9434000C9434000C943400A6
S11300100C9434000C9434000C9434000C9434008C
S11300200C9434000C9434000C9434000C9434007C
S11300300C9434000C9434000C9434000C9434006C
S11300400C9434000C9434000C9434000C9434005C
S11300500C94340011241FBECFE5D4E0DEBFCDBF25
S11300600E94F5000C9447010C940000982F907F97
S1130070986095BBE3ECF9E03197F1F700C000001C
S1130080AB98F0E18F9FC0011124886085BB83EC9D
S113009099E00197F1F700C00000AB980895982FFC
S11300A0907F9C6095BBE3ECF9E03197F1F700C0D9
S11300B00000AB988295807F8C6085BB83EC99E0CF
S11300C00197F1F700C00000AB980895CF93DF9338
S11300D0EC018881882331F021960E944F00899198
S11300E08111FBCFDF91CF91089581E00E9436000A
S11300F00895EF92FF920F931F93CF93DF93CDB7A1
S1130100DEB7C456D1090FB6F894DEBF0FBECDBF1B
S1130110009731F480E389831A8221E030E02AC019
S1130120992344F4919581959109D9F0EE24E394AF
S1130130F12C02C0E12CF12CFE01319620E030E0DC
S11301400AE010E02F5F3F4FB8010E940F01805D6D
S11301508193862F972F0097A9F7EA94EF2851F4FB
S113016002C020E030E0FE01E20FF31F8DE2818344
S11301702F5F3F4FE1E0F0E0EC0FFD1FE20FF31FB4
S11301801082CE0101960E943701CE0101960E9491
S11301906600CC59DF4F0FB6F894DEBF0FBECDBF5B
S11301A0DF91CF911F910F91FF90EF9008958CEF05
S11301B084BB82E00E94360088E20E9436008EE012
S11301C00E94360086E00E94360081E00E943600DC
S11301D080E80E94360008958FB9779BFECF8FB1D7
S11301E00895BD98BE9A6E9A08950E94D7000E9401
S11301F0F100CFEF8C2F0E94EC00D82F0E947500E5
S11302008D2F90E00E94790080EC0E943600DFEF91
S1130210DC0F8C2F90E00E947900CD2FEBCF97FB61
S1130220072E16F4009407D077FD09D00E9423010D
S113023007FC05D03EF4909581959F4F08957095E5
S113024061957F4F0895AA1BBB1B51E107C0AA1FEC
S1130250BB1FA617B70710F0A61BB70B881F991F63
S11302605A95A9F780959095BC01CD010895DC01BC
S1130270FC01672F71917723E1F7329704C07C91D9
S11302806D9370836291AE17BF07C8F30895F89415
S1050290FFCF9A
S9030000FC
