S00F00004D5055363035302E7372656358
S11300000C94A7000C94C4000C94C4000C94C40079
S11300100C94C4000C94C4000C94C4000C94C4004C
S11300200C94C4000C94C4000C94C4000C94C4003C
S11300300C94C4000C94C4000C94C4000C94C4002C
S11300400C94C4000C94C4000C94C4000C94C4001C
S11300500C94C40000407A10F35A00A0724E1809A0
S11300600010A5D4E80000E87648170000E40B541B
S1130070020000CA9A3B000000E1F50500008096EA
S11300809800000040420F000000A086010000001C
S1130090102700000000E8030000000064000000D6
S11300A000000A00000000000100000000002C769F
S11300B0D888DC674F0823DFC1DFAE59E1B1B796BA
S11300C0E5E3E453C63AE651997696E8E6C2842617
S11300D0EB898C9B62ED407C6FFCEFBC9C9F40F2F3
S11300E0BAA56FA5F490055A2AF75C936B6CF9676F
S11300F06DC11BFCE0E40D47FEF520E6B500D0ED34
S1130100902E0300943577050080841E080000209B
S11301104E0A000000C80C333333330F986E128339
S11301201141EF8D2114893BE65516CFFEE6DB180D
S1130130D1844B381BF77C1D901DA4BBE4242032D2
S113014084725E228100C9F124ECA1E53D271124CB
S11301501FBECFE5D4E0DEBFCDBF10E0A0E6B0E027
S1130160ECE4F0E102C005900D92AA3BB107D9F787
S113017020E0AAEBB0E001C01D92A83CB207E1F771
S11301800E94C7020C9424080C940000982F907FBE
S1130190946098BBEFE3FCE93197F1F700C00000ED
S11301A0C298F0E18F9FC0011124846088BB8FE363
S11301B09CE90197F1F700C00000C2980895982FB8
S11301C0907F956098BBEFE3FCE93197F1F700C0AD
S11301D00000C2988295807F856088BB8FE39CE98C
S11301E00197F1F700C00000C2980895CF93DF9300
S11301F0EC018881882331F021960E94DF008991E7
S11302008111FBCFDF91CF91089581E00E94C60058
S113021008950F931F93CF93DF93CDB7DEB7E29783
S11302200FB6F894DEBF0FBECDBF8E010F5F1F4F18
S113023024E048E00E949B05C8010E94F600E29673
S11302400FB6F894DEBF0FBECDBFDF91CF911F91E3
S11302500F9108958FEF87BB82E00E94C60088E269
S11302600E94C6008EE00E94C60086E00E94C6007E
S113027081E00E94C60080E80E94C600089511B87B
S113028088E480B9089584E986BF06B604FCFDCFEE
S113029008951F93CF93DF93182FC4EAD4E8C6BF01
S11302A006B607FEFDCF81B1887F8830C1F713B948
S11302B0D6BF06B607FEFDCF81B1887F883119F01D
S11302C00E944301ECCFDF91CF911F91089594EAEE
S11302D096BF06B607FEFDCF91B1987F903171F4B9
S11302E083B984E886BF06B607FEFDCF81B1887F57
S11302F0803431F0803231F083E0089580E0089555
S113030081E0089582E0089583B984E886BF06B643
S113031007FEFDCF81B1887F883221F0803321F040
S113032082E0089580E0089581E0089584EC86BF1A
S113033006B607FEFDCF83B1089584E886BF06B6EE
S113034007FEFDCF83B10895A0E0B0E0880F991FA8
S1130350AA1FBB1F880F991FAA1FBB1F9C01AD01B9
S1130360220F331F441F551F220F331F441F551FD5
S113037060E074E284EF90E00E946505DA01C9014F
S11303800197A109B109892F9A2FAB2FBB2780BDF3
S1130390215029B98AB188618AB980B5866880BD3F
S11303A008955D9BFECF50988CB90895CF93DF9349
S11303B0EC015D9BFECF8881882331F021960E9459
S11303C0D10189918111FBCF80E00E94D101DF919D
S11303D0CF9108950F931F93CF93DF93CDB7DEB7DB
S11303E0E2970FB6F894DEBF0FBECDBF8E010F5F4C
S11303F01F4F24E048E00E949B05C8010E94D601DB
S1130400E2960FB6F894DEBF0FBECDBFDF91CF9159
S11304101F910F9108952FEF82E597E021508040BE
S11304209040E1F700C0000080ED0E94490189E19D
S11304300E94840187E00E9484010E94430180EDB0
S11304400E9449018BE60E94840181E00E9484019C
S11304500E94430180ED0E9449018AE10E948401C7
S113046080E00E9484010E94430180ED0E944901C2
S11304708BE10E94840188E10E9484010E9443016F
S113048080ED0E9449018CE10E94840188E00E9471
S113049084010E94430180ED0E94490188E30E9487
S11304A0840181E00E9484010E9443010895CF9356
S11304B080ED0E9449018BE30E94840181ED0E943A
S11304C067010E949601C82F0E9496012C2F30E0EC
S11304D0322F2227282B3093C7002093C6000E9476
S11304E09601C82F0E9496012C2F30E0322F22272C
S11304F0282B3093C5002093C4000E949601C82F76
S11305000E9496012C2F30E0322F2227282B309383
S1130510C3002093C2000E949601C82F0E94960136
S11305202C2F30E0322F2227282B3093BB0020932E
S1130530BA000E949601C82F0E9496012C2F30E029
S1130540322F2227282B3093C1002093C0000E9411
S11305509601C82F0E9496012C2F30E0322F2227BB
S1130560282B3093BF002093BE000E949601C82F11
S11305700E949D012C2F30E0322F2227282B30930C
S1130580BD002093BC000E944301CF910895CF93F6
S1130590DF93CDB7DEB760970FB6F894DEBF0FBE1A
S11305A0CDBF0E943F010E940B0280E895E20E94A9
S11305B0A4010E942A010E9457026091C600709112
S11305C0C700772314F46150704E68E07602612D01
S11305D0770B1124072E000C880B990B0E94C5047D
S11305E04B015C016091C4007091C500772314F441
S11305F06150704E68E07602612D770B1124072E4E
S1130600000C880B990B0E94C5042B013C016091DE
S1130610C2007091C300772314F46150704E68E0F7
S11306207602612D770B1124072E000C880B990B91
S11306300E94C50469837A838B839C836091C00084
S11306407091C100072E000C880B990B0E94C50401
S113065023E333E343E851E40E9451046D837E8332
S11306608F8398876091BE007091BF00072E000CA5
S1130670880B990B0E94C50423E333E343E851E458
S11306800E94510469877A878B879C876091BC009C
S11306907091BD00072E000C880B990B0E94C504B5
S11306A023E333E343E851E40E9451046D877E87DA
S11306B08F87988B8091BA009091BB0064E571E0BC
S11306C00E945105072E000C880B990B0E94C5044B
S11306D026EF38E242E152E40E94E5036B017C011B
S11306E080E690E00E94D601C501B4010E94EA01AF
S11306F089E690E00E94D6018DE690E00E94D60142
S1130700C301B2010E94EA0189E690E00E94D60189
S113071086E790E00E94D60169817A818B819C8171
S11307200E94EA018FE790E00E94D60182E890E0FF
S11307300E94D601C701B6010E94EA0188E890E050
S11307400E94D6018CE890E00E94D6016D817E81E2
S11307508F8198850E94EA0186E990E00E94D60183
S11307608CE990E00E94D60169857A858B859C8509
S11307700E94EA0187EA90E00E94D6018FEA90E0A5
S11307800E94D6016D857E858F8598890E94EA0135
S113079087EA90E00E94D6010E940501C501B401D8
S11307A00E9409018AE890E00E94F600C701B601A0
S11307B00E9409012FEF83EC99E021508040904082
S11307C0E1F700C00000F7CE5058BB27AA270E94CB
S11307D0FC030C9417050E94090538F00E941005CB
S11307E020F039F49F3F19F426F40C9406050EF416
S11307F0E095E7FB0C940005E92F0E94280558F3C7
S1130800BA17620773078407950720F079F4A6F5F1
S11308100C944A050EF4E0950B2EBA2FA02D0B0173
S1130820B90190010C01CA01A0011124FF27591B31
S113083099F0593F50F4503E68F11A16F040A22F37
S1130840232F342F4427585FF3CF469537952795A8
S1130850A795F0405395C9F77EF41F16BA0B620BA7
S1130860730B840BBAF09150A1F0FF0FBB1F661FEE
S1130870771F881FC2F70EC0BA0F621F731F841F31
S113088048F4879577956795B795F7959E3F08F057
S1130890B0CF9395880F08F09927EE0F9795879519
S11308A008950E9465040C9417050E94100558F0E1
S11308B00E94090540F029F45F3F29F00C940005DB
S11308C051110C944B050C9406050E94280568F3FD
S11308D09923B1F3552391F3951B550BBB27AA27F5
S11308E062177307840738F09F5F5F4F220F331F2F
S11308F0441FAA1FA9F335D00E2E3AF0E0E832D0F7
S113090091505040E695001CCAF72BD0FE2F29D0F9
S1130910660F771F881FBB1F261737074807AB07CB
S1130920B0E809F0BB0B802DBF01FF2793585F4F40
S11309303AF09E3F510578F00C9400050C944B0559
S11309405F3FE4F3983ED4F3869577956795B79522
S1130950F7959F5FC9F7880F911D9695879597F92D
S11309600895E1E0660F771F881FBB1F62177307A6
S11309708407BA0720F0621B730B840BBA0BEE1FBB
S113098088F7E0950895E89409C097FB3EF49095A4
S11309908095709561957F4F8F4F9F4F9923A9F054
S11309A0F92F96E9BB279395F695879577956795E3
S11309B0B795F111F8CFFAF4BB0F11F460FF1BC027
S11309C06F5F7F4F8F4F9F4F16C0882311F096E9BA
S11309D011C0772321F09EE8872F762F05C0662368
S11309E071F096E8862F70E060E02AF09A95660F21
S11309F0771F881FDAF7880F9695879597F90895DA
S1130A0097F99F6780E870E060E008959FEF80ECBD
S1130A10089500240A941616170618060906089560
S1130A2000240A9412161306140605060895092EC6
S1130A300394000C11F4882352F0BB0F40F4BF2B35
S1130A4011F460FF04C06F5F7F4F8F4F9F4F089575
S1130A5057FD9058440F551F59F05F3F71F047956B
S1130A60880F97FB991F61F09F3F79F08795089550
S1130A70121613061406551FF2CF4695F1DF08C06F
S1130A80161617061806991FF1CF8695710561058C
S1130A9008940895E894BB2766277727CB0197F934
S1130AA0089597FB072E16F4009407D077FD09D01C
S1130AB00E94870507FC05D03EF4909581959F4FD1
S1130AC00895709561957F4F0895A1E21A2EAA1B8F
S1130AD0BB1BFD010DC0AA1FBB1FEE1FFF1FA217EA
S1130AE0B307E407F50720F0A21BB30BE40BF50BE7
S1130AF0661F771F881F991F1A9469F76095709570
S1130B00809590959B01AC01BD01CF010895AA1B6E
S1130B10BB1B51E107C0AA1FBB1FA617B70710F0E4
S1130B20A61BB70B881F991F5A95A9F78095909516
S1130B30BC01CD010895EF920F931F93CF93DF93E0
S1130B40E80147FD02C034E001C034E1042E000C8A
S1130B50550B57FF03C0519541955109E32E022FC0
S1130B60242FAE010E94BB05CE01DF91CF911F91CE
S1130B700F91EF900895A9E0B0E0E1ECF5E00C945A
S1130B80F3076A01122FB02E2BE3201720F0FF2465
S1130B90F394F00E02C02CE3F22E0F2D27E0AE01E9
S1130BA04F5F5F4F0E941507BC014981842F8970F4
S1130BB0813031F0E1FC06C0E0FE06C090E205C0E1
S1130BC09DE203C09BE201C090E05E2D507143FFA3
S1130BD03CC0911102C083E001C084E0811718F485
S1130BE0212F281B01C020E051110BC0F601822FD8
S1130BF030E2882319F031938150FBCFC20ED11C0F
S1130C0020E0992329F0D6019C93F60131966F01D7
S1130C10C6010396E2FE0AC03EE4D6013C9341E4D9
S1130C2011964C93119712963C9306C03EE6F6013A
S1130C30308341E641833283FC01322F40E2332387
S1130C4009F442C041933150FACF42FF44C091119C
S1130C5002C083E001C084E0811718F4212F281B0F
S1130C6001C020E051110BC0F601822F30E288232D
S1130C7019F031938150FBCFC20ED11C20E099238F
S1130C8029F0D6019C93F60131966F01C6010396B3
S1130C90E2FE0BC039E4D6013C933EE411963C934A
S1130CA0119736E412963C9307C039E6F601308377
S1130CB03EE6318336E63283FC01322F40E23323B1
S1130CC019F041933150FBCFFC01E20FF11D10826A
S1130CD08EEF9FEFA6C021E030E0911102C020E02A
S1130CE030E0161617061CF4FB01319602C0E1E051
S1130CF0F0E02E0F3F1FBB2021F0EB2DF0E03196EA
S1130D0002C0E0E0F0E02E0F3F1FE12FF0E02E17CD
S1130D103F071CF4121B212F01C020E08E2D887187
S1130D2059F4F601822F30E2882319F0319381506F
S1130D30FBCFC20ED11C20E0992329F0D6019C934D
S1130D40F60131966F0151110BC0F601822F90E329
S1130D50882319F091938150FBCFC20ED11C20E05F
S1130D600F2D060F9A81342F307144FF03C0913345
S1130D7009F40150101624F4093018F008E001C0F9
S1130D8001E0AB0177FF02C040E050E0FB01E41B4F
S1130D90F50BA1E0B0E0AC0FBD1FEA0FFB1F8EE224
S1130DA0A82E4B01801A91080B2D10E01195019586
S1130DB011094F3FBFEF5B0721F4D601AC921196A6
S1130DC06D01641775072CF08416950614F481815F
S1130DD001C080E3415051093196D60111967D013D
S1130DE04017510724F0D6018C936701E2CF6417B2
S1130DF0750739F4963320F4953319F4311101C091
S1130E0081E3F6018083F701822F90E2882319F0B1
S1130E1091938150FBCFF701E20FF11D108280E026
S1130E2090E02996ECE00C940F08283008F027E0B5
S1130E303327DA01990F311D87FD91600096610512
S1130E40710539F432602E5F3D9330E32A95E1F762
S1130E5008959F3F30F080387105610509F03C5FCB
S1130E603C5F3D93913008F08068911DDF93CF93F0
S1130E701F930F93FF92EF92192F987F9695E92F66
S1130E8096959695E90FFF27E255FF4F992733274B
S1130E90EE24FF24A701E70105900894079428F4A1
S1130EA0360FE71EF81E491F511D660F771F881F56
S1130EB0991F0694A1F70590079428F4E70EF81EED
S1130EC0491F561FC11D770F881F991F661F06945F
S1130ED0A1F70590079428F4F80E491F561FC71F61
S1130EE0D11D880F991F661F771F0694A1F70590DF
S1130EF0079420F4490F561FC71FD81F990F661F68
S1130F00771F881F0694A9F784911095177041F0F4
S1130F10D695C79557954795F794E7941A95C1F7D1
S1130F20E4E5F0E0689415901591359165919591FB
S1130F3005907FE27395E118F10A430B560BC90B38
S1130F40D009C0F7E10CF11E431F561FC91FD01D65
S1130F507EF4703311F48A95E6CFE894015030F0B2
S1130F60080F0AF40027021708F4202F2395022FF4
S1130F707A3328F079E37D932A95E9F710C07D93BD
S1130F802A9589F60694979567953795179517943A
S1130F90E118F10A430B560BC90BD00998F02395BD
S1130FA07E9173957A3308F070E37C932013B8F73D
S1130FB07E9170617D9330F0839571E37D9370E34E
S1130FC02A95E1F71124EF90FF900F911F91CF9193
S1130FD0DF91992787FD909508952F923F924F9224
S1130FE05F926F927F928F929F92AF92BF92CF92B5
S1130FF0DF92EF92FF920F931F93CF93DF93CDB7BE
S1131000DEB7CA1BDB0B0FB6F894DEBF0FBECDBF35
S113101009942A88398848885F846E847D848C8406
S11310209B84AA84B984C884DF80EE80FD800C810F
S11310301B81AA81B981CE0FD11D0FB6F894DEBFF2
S10F10400FBECDBFED010895F894FFCF62
S113104C4163635F78203D2000672009004163639E
S113105C5F79203D20004163635F7A203D20006767
S113106C200054656D703D00202020004779726F7C
S113107C5F78203D20006465672F730020477972E8
S113108C6F5F79203D20006465672F732009002071
S10D109C4779726F5F7A203D20004F
S9030000FC
