:100000000C942A000C943F000C943F000C943F0089
:100010000C943F000C943F000C943F000C943F0064
:100020000C943F000C943F000C943F000C943F0054
:100030000C943F000C943F000C943F000C943F0044
:100040000C943F000C943F000C943F000C943F0034
:100050000C943F0011241FBECFE5D4E0DEBFCDBF1E
:1000600010E0A0E6B0E0EEEAF3E002C005900D92E9
:10007000A037B107D9F70E9428010C94D5010C9440
:100080000000982F907F946098BBEFE3FCE93197D4
:10009000F1F700C00000C298F0E18F9FC001112469
:1000A000846088BB8FE39CE90197F1F700C00000F2
:1000B000C29808958FEF87BB82E00E94410088E2DA
:1000C0000E9441008EE00E94410086E00E944100B3
:1000D00081E00E94410080E80E9441000895A0E074
:1000E000B0E0880F991FAA1FBB1F880F991FAA1F76
:1000F000BB1F9C01AD01220F331F441F551F220F50
:10010000331F441F551F60E074E284EF90E00E94AB
:100110008F01DA01C9010197A109B109892F9A2F2D
:10012000AB2FBB2780BD215029B98AB188618AB91C
:1001300080B5866880BD08955D9BFECF50988CB9D0
:100140000895CF93DF93EC015D9BFECF88818823D8
:1001500031F021960E949C0089918111FBCF80E0B3
:100160000E949C00DF91CF91089580E88ABB87E8C8
:1001700086B93E9A0895877087B9369A349BFECF28
:10018000349A8FE99FE00197F1F700C0000084B135
:1001900095B10895EF92FF920F931F93CF93DF9342
:1001A000CDB7DEB7C456D1090FB6F894DEBF0FBE87
:1001B000CDBF009731F480E389831A8221E030E0DB
:1001C0002AC0992344F4919581959109D9F0EE24A0
:1001D000E394F12C02C0E12CF12CFE01319620E0D9
:1001E00030E00AE010E02F5F3F4FB8010E947B0132
:1001F000805D8193862F972F0097A9F7EA94EF28C7
:1002000051F402C020E030E0FE01E20FF31F8DE266
:1002100081832F5F3F4FE1E0F0E0EC0FFD1FE20F25
:10022000F31F1082CE0101960E94C501CE010196F6
:100230000E94A100CC59DF4F0FB6F894DEBF0FBE6D
:10024000CDBFDF91CF911F910F91FF90EF90089557
:100250000E94B5000E945A0080E096E90E946F005B
:1002600001E010E0C0E0D0E003C021960F5F1F4F17
:100270008C2F0E94BB007C01C130D10551F020F0D1
:10028000C230D10559F01BC080E690E00E94A10069
:1002900025C085E690E00E94A10020C08AE690E09B
:1002A0000E94A100C7010E94CA002FEF83EC99E0D1
:1002B000215080409040E1F700C00000D1CF0E9463
:1002C000CA002FEF83EC99E0215080409040E1F785
:1002D00000C00000033011051CF6C7CFC7010E9403
:1002E000CA002FEF83EC99E0215080409040E1F765
:1002F00000C00000BACF97FB072E16F4009407D079
:1003000077FD09D00E94B10107FC05D03EF490951D
:1003100081959F4F0895709561957F4F0895A1E253
:100320001A2EAA1BBB1BFD010DC0AA1FBB1FEE1F6F
:10033000FF1FA217B307E407F50720F0A21BB30BBA
:10034000E40BF50B661F771F881F991F1A9469F736
:1003500060957095809590959B01AC01BD01CF0192
:100360000895AA1BBB1B51E107C0AA1FBB1FA617FC
:10037000B70710F0A61BB70B881F991F5A95A9F74E
:1003800080959095BC01CD010895DC01FC01672F9B
:1003900071917723E1F7329704C07C916D9370835C
:0E03A0006291AE17BF07C8F30895F894FFCF1F
:1003AE0020583D200020593D2000205A3D200000BD
:00000001FF
