:100000000C942A000C9434000C9434000C943400AA
:100010000C9434000C9434000C9434000C94340090
:100020000C9434000C9434000C9434000C94340080
:100030000C9434000C9434000C9434000C94340070
:100040000C9434000C9434000C9434000C94340060
:100050000C94340011241FBECFE5D4E0DEBFCDBF29
:100060000E94F4000C9447010C940000982F907F9C
:10007000946098BBEFE3FCE93197F1F700C0000012
:10008000C298F0E18F9FC0011124846088BB8FE388
:100090009CE90197F1F700C00000C2980895982FDD
:1000A000907F956098BBEFE3FCE93197F1F700C0D2
:1000B0000000C2988295807F856088BB8FE39CE9B1
:1000C0000197F1F700C00000C2980895CF93DF9325
:1000D000EC018881882331F021960E944F0089919C
:1000E0008111FBCFDF91CF91089581E00E9436000E
:1000F00008958FEF87BB82E00E94360088E20E945D
:1001000036008EE00E94360086E00E94360081E0D4
:100110000E94360080E80E9436000895A0E0B0E01A
:10012000880F991FAA1FBB1F880F991FAA1FBB1FEB
:100130009C01AD01220F331F441F551F220F331F97
:10014000441F551F60E074E284EF90E00E94250197
:10015000DA01C9010197A109B109892F9A2FAB2FA3
:10016000BB2780BD215029B98AB188618AB980B581
:10017000866880BD08955D9BFECF50988CB9089528
:10018000CF93DF93EC015D9BFECF8881882331F014
:1001900021960E94BB0089918111FBCF80E00E94D3
:1001A000BB00DF91CF9108955F9BFECF8CB1089586
:1001B0000F931F93CF938C01C0E001C0C92F0E9401
:1001C000D400F801EC0FF11D808391E09C0F8A3080
:1001D00011F08D3099F7CE5FF801EC0FF11D108210
:1001E000CF911F910F910895CF93DF93CDB7DEB7D5
:1001F000E2970FB6F894DEBF0FBECDBF0E94790024
:1002000080E096E90E948E000F2EF2E3FF2EF02D83
:100210008E010F5F1F4FF8012F2D11922A95E9F7DC
:10022000C8010E94D8000E947500C8010E946600A3
:10023000C8010E94C0008FEF9FE0E7E2815090402C
:10024000E040E1F700C00000E6CFA1E21A2EAA1BB1
:10025000BB1BFD010DC0AA1FBB1FEE1FFF1FA21776
:10026000B307E407F50720F0A21BB30BE40BF50B73
:10027000661F771F881F991F1A9469F760957095FC
:10028000809590959B01AC01BD01CF010895F89434
:02029000FFCF9E
:00000001FF
