S00B00005744542E737265632A
S11300000C942A000C9434000C9434000C943400A6
S11300100C9434000C9434000C9434000C9434008C
S11300200C9434000C9434000C9434000C9434007C
S11300300C9434000C9434000C9434000C9434006C
S11300400C9434000C9434000C9434000C9434005C
S11300500C94340011241FBECFE5D4E0DEBFCDBF25
S11300600E943A000C944B000C94000081B58E6001
S113007081BD08950E94360087B38FEF87BBC39A72
S11300802FE38DE093E0215080409040E1F700C0E1
S10D00900000C398FFCFF894FFCFDF
S9030000FC
