:100000000C942A000C9447000C9447000C94470071
:100010000C9447000C9447000C9447000C94470044
:100020000C9447000C9447000C9447000C94470034
:100030000C9447000C9447000C9447000C94470024
:100040000C9447000C9447000C9447000C94470014
:100050000C94470011241FBECFE5D4E0DEBFCDBF16
:1000600010E0A0E6B0E0E4E5F4E002C005900D92F7
:10007000AE36B107D9F720E0AEE6B0E001C01D9280
:10008000AF36B207E1F70E9493010C9428020C945A
:100090000000982F907F946098BBEFE3FCE93197C4
:1000A000F1F700C00000C298F0E18F9FC001112459
:1000B000846088BB8FE39CE90197F1F700C00000E2
:1000C000C2980895982F907F956098BBEFE3FCE964
:1000D0003197F1F700C00000C2988295807F85605B
:1000E00088BB8FE39CE90197F1F700C00000C2983C
:1000F0000895CF93DF93EC018881882331F0219616
:100100000E94620089918111FBCFDF91CF91089508
:1001100081E00E9449000895EF92FF920F931F9390
:10012000CF93DF93CDB7DEB7C456D1090FB6F8949D
:10013000DEBF0FBECDBF009731F480E389831A8202
:1001400021E030E02AC0992344F4919581959109EA
:10015000D9F0EE24E394F12C02C0E12CF12CFE0145
:10016000319620E030E00AE010E02F5F3F4FB80109
:100170000E94E101805D8193862F972F0097A9F758
:10018000EA94EF2851F402C020E030E0FE01E20FD3
:10019000F31F8DE281832F5F3F4FE1E0F0E0EC0F32
:1001A000FD1FE20FF31F1082CE0101960E9418027C
:1001B000CE0101960E947900CC59DF4F0FB6F8941A
:1001C000DEBF0FBECDBFDF91CF911F910F91FF908A
:1001D000EF9008950F931F93CF93DF93CDB7DEB7C2
:1001E000C456D1090FB6F894DEBF0FBECDBFAC0127
:1001F000892B31F480E389831A82E1E0F0E033C097
:100200008E010F5F1F4FE0E0F0E031969A01ADECF8
:10021000BCEC0E94F50196958795969587959695E5
:1002200087959C01220F331F880F991F880F991FF4
:10023000880F991F820F931F9A01281B390BC90140
:10024000805DD8018D938D019A01ADECBCEC0E94CC
:10025000F501AC01569547955695479556954795A6
:100260004115510591F621E030E02C0F3D1FE20FC2
:10027000F31F1082C9010E941802CE0101960E944C
:100280007900CC59DF4F0FB6F894DEBF0FBECDBF5B
:10029000DF91CF911F910F9108958FEF87BB82E07F
:1002A0000E94490088E20E9449008EE00E944900B5
:1002B00086E00E94490081E00E94490080E80E9497
:1002C000490008958F9A97982FEF89EF90E0215079
:1002D00080409040E1F700C00000979A08958F9801
:1002E0008799FECF879BFECF8799FECF089588E040
:1002F00090E0879BFECF20EA2A95F1F7879B07C005
:1003000020916E00220F216020936E0005C0209185
:100310006E00220F20936E008799FECF019749F758
:1003200080916E0008950E944D0180E690E00E9449
:1003300079000E9488000E9462010E946F010E9461
:100340007701E82E0E947701082F10E00E947701C4
:10035000F82E0E947701C82FD0E00E94770190E02C
:1003600098012C0F3D1F2F0D311D2E0D311D8217B1
:10037000930721F086E690E00E9479008E2D90E0B0
:100380000E948C008CE690E00E947900C8010E94D7
:10039000EA0080EC0E9449008F2D90E00E948C00C2
:1003A0008CE690E00E947900CE010E94EA002FEFD7
:1003B0008BE69BE6215080409040E1F700C00000B2
:1003C000B8CF97FB072E16F4009407D077FD09D01D
:1003D0000E94040207FC05D03EF4909581959F4F42
:1003E0000895709561957F4F0895A29FB001B39FC6
:1003F000C001A39F700D811D1124911DB29F700D2E
:10040000811D1124911D0895AA1BBB1B51E107C03A
:10041000AA1FBB1FA617B70710F0A61BB70B881F94
:10042000991F5A95A9F780959095BC01CD01089523
:10043000DC01FC01672F71917723E1F7329704C04B
:100440007C916D9370836291AE17BF07C8F30895D6
:04045000F894FFCF4E
:0E04540048454C4C4F004552524F52002E006E
:00000001FF
