:100000000C942A000C9434000C9434000C943400AA
:100010000C9434000C9434000C9434000C94340090
:100020000C9434000C9434000C9434000C94340080
:100030000C9434000C9434000C9434000C94340070
:100040000C9434000C9434000C9434000C94340060
:100050000C94340011241FBECFE5D4E0DEBFCDBF29
:100060000E947F000C94B1000C940000982F907FA8
:10007000946098BBE3ECF9E03197F1F700C0000021
:10008000C298F0E18F9FC0011124846088BB83EC8B
:1000900099E00197F1F700C00000C2980895982FE9
:1000A000907F956098BBE3ECF9E03197F1F700C0E1
:1000B0000000C2988295807F856088BB83EC99E0C0
:1000C0000197F1F700C00000C298089581E00E94F6
:1000D000360008958FEF87BB82E00E94360088E2E9
:1000E0000E9436008EE00E94360086E00E943600B4
:1000F00081E00E94360080E80E94360008950E9448
:100100006A0061E68AE090E00E94A0008AE090E048
:100110000E9498000E944F002FEF80E792E021504C
:1001200080409040E1F700C000000E946600E9CFE7
:10013000E199FECF9FBB8EBBE09A99278DB30895BE
:10014000262FE199FECF9FBB8EBBE09A01970DB29F
:10015000021631F02DBB0FB6F894E29AE19A0FBE69
:060160000895F894FFCFA2
:00000001FF
