:100000000C942A000C9447000C9447000C94470071
:100010000C9447000C9447000C9447000C94470044
:100020000C9447000C9447000C9447000C94DF0399
:100030000C9447000C9447000C9447000C94470024
:100040000C9447000C9447000C9447000C94470014
:100050000C94470011241FBECFE5D4E0DEBFCDBF16
:1000600012E0A0E6B0E0E8EEFFE002C005900D92DD
:10007000A231B107D9F722E0A2E1B2E001C01D929E
:10008000AB37B207E1F70E9416040C94F2070C9408
:100090000000982F907F946098BBEFE3FCE93197C4
:1000A000F1F700C00000C298F0E18F9FC001112459
:1000B000846088BB8FE39CE90197F1F700C00000E2
:1000C000C2980895982F907F956098BBEFE3FCE964
:1000D0003197F1F700C00000C2988295807F85605B
:1000E00088BB8FE39CE90197F1F700C00000C2983C
:1000F0000895CF93DF93EC018881882331F0219616
:100100000E94620089918111FBCFDF91CF91089508
:1001100081E00E94490008958FEF87BB82E00E9432
:10012000490088E20E9449008EE00E94490086E072
:100130000E94490081E00E94490080E80E94490035
:100140000895DC01CB01880F991FAA1FBB1F880FE0
:10015000991FAA1FBB1F9C01AD01220F331F441F13
:10016000551F220F331F441F551F60E074E284EFB8
:1001700090E00E94A304DA01C9010197A109B10925
:10018000892F9A2FAB2FBB2780BD215029B98AB167
:1001900088698AB980B5866880BD08955D9BFECF69
:1001A00050988CB90895CF93DF93EC018881882310
:1001B00031F021960E94CE0089918111FBCFDF9111
:1001C000CF9108952F923F924F925F926F927F92BC
:1001D0008F929F92AF92BF92CF92DF92EF92FF9257
:1001E0000F931F93CF93DF9300D000D000D0CDB7F3
:1001F000DEB71C018DB79EB79E838D83F101019000
:100200000020E9F731974F018218930899243401AF
:1002100091E0691A71086B827C82EDB7FEB7E8192C
:10022000F9090FB6F894FEBF0FBEEDBF8DB79EB7AC
:1002300001965C01C12CD12C0F2EF2E14F2EF2E081
:100240005F2EF02D680E791E3296FA83E98304C082
:1002500083E080937A0255C080917A02811103C0B5
:10026000F1E0F0937A02F20101900020E9F7319772
:10027000E251F240B1F18FE99FE00197F1F700C040
:1002800000009FEFC91AD90AD2010D900020E9F7AA
:100290001197A251B240EA17FB0719F50F2EF2E1B0
:1002A000EF2EF2E0FF2EF02D8F010E5E1D4F4B81E1
:1002B0005C8169817A81C5010E94C504F701819141
:1002C0007F01F3018083A401B101C5010E94D7041D
:1002D000892B21F482E080937A0213C00E151F054A
:1002E00031F78FE99FE00197F1F700C000009FEF21
:1002F000C91AD90AE0E1CE16E7E2DE0608F4ACCF6F
:10030000A7CF8D819E810FB6F8949EBF0FBE8DBF83
:1003100026960FB6F894DEBF0FBECDBFDF91CF910A
:100320001F910F91FF90EF90DF90CF90BF90AF9013
:100330009F908F907F906F905F904F903F902F9005
:10034000089584E6E2E1F2E0DF011D928A95E9F783
:10035000109279021092780210927702109276022F
:100360000895CF93DF93EC0110927A02CE010E94A0
:10037000E20080917A028130C9F3DF91CF91089534
:100380000E94B10181E090917A02933009F480E0FB
:1003900008950F931F93CF93DF938C01EB010E947D
:1003A000A101C8010E94D30087EC90E00E94D30015
:1003B000CE010E94C001DF91CF911F910F9108954E
:1003C000CF93C5E060E670E087E690E00E94C90147
:1003D000811102C0C150B1F7CF9108950F931F93BF
:1003E000CF93DF93CDB7DEB7E2970FB6F894DEBFB9
:1003F0000FBECDBF8E010F5F1F4F92E3F801119228
:100400009A95E9F71F928F9388E790E09F938F93D7
:100410001F930F930E94FF041AAA60E670E0C801C0
:100420000E94C9010F900F900F900F900F900F90A6
:10043000E2960FB6F894DEBF0FBECDBFDF91CF912D
:100440001F910F9108950F931F93CF93DF93CDB713
:10045000DEB7E2970FB6F894DEBF0FBECDBF8E01B8
:100460000F5F1F4F92E3F80111929A95E9F71F92DF
:100470008F9386E890E09F938F931F930F930E9432
:10048000FF041AAA60E670E0C8010E94C9010F903B
:100490000F900F900F900F900F90E2960FB6F89478
:1004A000DEBF0FBECDBFDF91CF911F910F91089599
:1004B0000F931F93CF93DF93CDB7DEB7E2970FB6BD
:1004C000F894DEBF0FBECDBF8E010F5F1F4F92E3CA
:1004D000F80111929A95E9F71F928F9383E990E0C2
:1004E0009F938F931F930F930E94FF041AAA60E6B5
:1004F00070E0C8010E94C9010F900F900F900F90FB
:100500000F900F90E2960FB6F894DEBF0FBECDBFEE
:10051000DF91CF911F910F9108950F931F93CF9368
:10052000DF93CDB7DEB7E2970FB6F894DEBF0FBE0C
:10053000CDBF8E010F5F1F4F22E3F80111922A9564
:10054000E9F77F936F939F938F9380EA90E09F9357
:100550008F931F930F930E94FF041AAA67EB70E01A
:10056000C8010E94C9010FB6F894DEBF0FBECDBF0F
:10057000811122C06AEC70E082E192E00E94E50401
:10058000892BE1F463ED70E082E192E00E94E504E2
:10059000892BB1F46CED70E082E192E00E94E504F9
:1005A000892B81F465EE70E082E192E00E94E5041F
:1005B000892B51F485E009C080E007C081E005C0C7
:1005C00082E003C083E001C084E0E2960FB6F894B5
:1005D000DEBF0FBECDBFDF91CF911F910F91089568
:1005E00060E670E08EEE90E00E94C9016BEF70E073
:1005F00082E192E00E94E504892BD1F464E071E08D
:1006000082E192E00E94E504892BA1F46DE071E0A3
:1006100082E192E00E94E504892B71F466E171E0C9
:1006200082E192E00E94E504892B41F484E0089580
:1006300080E0089581E0089582E0089583E00895C0
:10064000DF92EF92FF920F931F93CF93DF93CDB77B
:10065000DEB7C654D1090FB6F894DEBF0FBECDBFCA
:10066000D82E162F072FF42EE52EFE01319686E4A4
:10067000DF011D928A95E9F76FE171E088E291E070
:100680000E94C9018823A1F0EF92FF920F931F935C
:1006900083E391E09F938F93CE0101969F938F9375
:1006A0000E94FF040FB6F894DEBF0FBECDBF15C089
:1006B000EF92FF920F931F931F92DF928DE491E0D0
:1006C0009F938F93CE0101969F938F930E94FF0477
:1006D0000FB6F894DEBF0FBECDBF6CE671E0CE0161
:1006E00001960E94C901811106C080917A0283306F
:1006F00021F084E003C082E001C083E0CA5BDF4FE9
:100700000FB6F894DEBF0FBECDBFDF91CF911F9122
:100710000F91FF90EF90DF900895EF92FF920F936B
:100720001F93CF93DF93CDB7DEB7E2970FB6F89460
:10073000DEBF0FBECDBF8C01CE0101967C0182E3EE
:10074000F70111928A95E9F7F80101900020E9F785
:10075000CF01801B910B01969F938F9386E791E0C9
:100760009F938F93FF92EF920E94FF041AAA64E86E
:1007700071E0C7010E94C9016CE871E0C8010E94E4
:10078000C9010F900F900F900F900F900F90811153
:1007900006C080917A02833021F084E003C082E0B9
:1007A00001C083E0E2960FB6F894DEBF0FBECDBF66
:1007B000DF91CF911F910F91FF90EF9008951F92BD
:1007C0000F920FB60F9211242F938F939F93EF9355
:1007D000FF932FB7F894E0917802F09179028CB1F1
:1007E000EE5EFD4F808380917802909179020196B0
:1007F00090937902809378028091780290917902A7
:100800008436910541F41092790210927802109288
:100810007702109276022FBFFF91EF919F918F91F7
:100820002F910F900FBE0F901F901895CF93DF93CD
:10083000CDB7DEB7EC970FB6F894DEBF0FBECDBFD5
:1008400060E875E280E090E00E94A10078940E9448
:100850008C000E94E0018823E1F380E00E94EE0119
:1008600083E00E94230280E00E9458020E94F0026E
:10087000833031F46BEA71E087EB91E00E948D02E6
:100880000E9488008EEB91E00E94790041EC51E0DB
:1008900064EC71E080E00E9420030FE010E00F2E76
:1008A000F2E37F2EF02D9E012F5F3F4F79010F2E37
:1008B000F0EEAF2EF1E0BF2EF02D0F2EF1EFCF2E88
:1008C000F1E0DF2EF02D87ED91E00E9479000E948B
:1008D000F002833039F46BEA71E087EB91E00E941B
:1008E0008D0209C0823039F441EC51E064EC71E0D2
:1008F00080E00E942003F701272D11922A95E9F745
:1009000048013FEF831A930A1F930F93BF92AF9250
:10091000DF92CF92FF92EF920E94FF04C7010E94E4
:100920008D038FEF99E5E2E6F2E081509040E040E0
:10093000F040D9F700C000000FB6F894DEBF0FBE3C
:10094000CDBF8401C0CFA1E21A2EAA1BBB1BFD01A3
:100950000DC0AA1FBB1FEE1FFF1FA217B307E4079E
:10096000F50720F0A21BB30BE40BF50B661F771FF6
:10097000881F991F1A9469F76095709580959095D6
:100980009B01AC01BD01CF0108956817790768F498
:10099000FB01DC01E40FF51FA40FB51F02C002909C
:1009A0000E9241505040D8F708950C940D07FB016A
:1009B000DC014150504030F08D910190801919F4C4
:1009C0000020B9F7881B990B0895FB01519155231D
:1009D000A9F0BF01DC014D9145174111E1F759F430
:1009E000CD010190002049F04D9140154111C9F30E
:1009F000FB014111EFCF81E090E001970895AEE057
:100A0000B0E0E5E0F5E00C94C9070D891E8986E0A9
:100A10008C831A8309838FEF9FE79E838D83AE01BA
:100A2000475E5F4F6F89788DCE0101960E94210548
:100A3000EF81F885E00FF11F10822E96E4E00C9410
:100A4000E507ABE0B0E0E7E2F5E00C94BB076C0132
:100A50007B018A01FC0117821682838181FFCCC150
:100A6000CE0101963C01F6019381F70193FD85913A
:100A700093FF81917F01882309F4BAC1853239F44B
:100A800093FD859193FF81917F01853229F4B60111
:100A900090E00E942107E7CF912C212C312CFFE11F
:100AA000F315D8F08B3279F038F4803279F0833254
:100AB000A1F4232D20611DC08D3261F0803369F4D3
:100AC000232D216016C0832D8260382EE32DE46033
:100AD0003E2E2AC0F32DF8601DC037FC2DC020ED3E
:100AE000280F2A3040F08E32B9F436FC81C1232D14
:100AF0002064322E19C036FE06C08AE0989E200D72
:100B00001124922E11C0EAE02E9E200D1124222ED7
:100B1000F32DF0623F2E08C08C3621F4832D8068BF
:100B2000382E02C0883641F4F70193FD859193FF7A
:100B300081917F018111B3CF982F9F7D9554933080
:100B400028F40C5F1F4F9FE399830DC0833631F06B
:100B5000833771F0833509F059C021C0F8018081D5
:100B600089830E5F1F4F88248394912C530113C0F7
:100B70002801F2E04F0E511CF801A080B18036FE32
:100B800003C0692D70E002C06FEF7FEFC5010E94C6
:100B900016074C018201F32DFF773F2E16C0280166
:100BA00022E0420E511CF801A080B18036FE03C045
:100BB000692D70E002C06FEF7FEFC5010E94020750
:100BC0004C01F32DF0683F2E820133FC1BC0822DB7
:100BD00090E088169906B0F4B60180E290E00E9499
:100BE00021072A94F4CFF50137FC859137FE8191D6
:100BF0005F01B60190E00E94210721102A9421E0B4
:100C0000821A91088114910471F7E8C0843611F0BA
:100C1000893641F5F80137FE07C060817181828114
:100C200093810C5F1F4F08C060817181072E000CFB
:100C3000880B990B0E5F1F4FF32DFF763F2E97FF0A
:100C400009C090958095709561957F4F8F4F9F4F0C
:100C5000F0683F2E2AE030E0A3010E945D07882E55
:100C6000861845C0853731F4232D2F7EB22E2AE019
:100C700030E025C0932D997FB92E8F36C1F018F43E
:100C8000883579F0B5C0803719F0883721F0B0C0C9
:100C9000E92FE061BE2EB4FE0DC0FB2DF460BF2E27
:100CA00009C034FE0AC0292F2660B22E06C028E0F3
:100CB00030E005C020E130E002C020E132E0F80180
:100CC000B7FE07C060817181828193810C5F1F4FE5
:100CD00006C06081718180E090E00E5F1F4FA3012C
:100CE0000E945D07882E8618FB2DFF773F2E36FE6B
:100CF0000DC0232D2E7FA22E891458F434FE0BC074
:100D000032FC09C0832D8E7EA82E05C0B82CA32CE2
:100D100003C0B82C01C0B92CA4FE0FC0FE01E80D21
:100D2000F11D8081803321F49A2D997EA92E09C06E
:100D3000A2FE06C0B394B39404C08A2D867809F04D
:100D4000B394A3FC11C0A0FE06C0B21488F4280C12
:100D5000922C9B180EC0B21460F4B60180E290E0B1
:100D60000E942107B394F7CFB21418F42B1802C0D5
:100D7000982C212CA4FE10C0B60180E390E00E94C4
:100D80002107A2FE17C0A1FC03C088E790E002C0C3
:100D900088E590E0B6010CC08A2D867859F0A1FE56
:100DA00002C08BE201C080E2A7FC8DE2B60190E0B8
:100DB0000E942107891438F4B60180E390E00E9474
:100DC00021079A94F7CF8A94F301E80DF11D8081F1
:100DD000B60190E00E9421078110F5CF222009F48E
:100DE00042CEB60180E290E00E9421072A94F6CF1D
:100DF000F6018681978102C08FEF9FEF2B96E2E18B
:100E00000C94D707FC010590615070400110D8F791
:100E1000809590958E0F9F1F0895FB01DC0102C005
:100E200001900D9241505040D8F70895FC01615057
:100E3000704001900110D8F7809590958E0F9F1FFC
:100E400008950F931F93CF93DF93FB01238121FD1F
:100E500003C08FEF9FEF2CC022FF16C04681578141
:100E6000248135814217530744F4A081B1819D014B
:100E70002F5F3F4F318320838C93268137812F5FF3
:100E80003F4F3783268314C08B01EC01FB010084A4
:100E9000F185E02D0995892BE1F6D80116968D9103
:100EA0009C911797019617969C938E931697CE0157
:100EB000DF91CF911F910F910895FA01AA27283051
:100EC00051F1203181F1E8946F936E7F6E5F7F4F17
:100ED0008F4F9F4FAF4FB1E03ED0B4E03CD0670F93
:100EE000781F891F9A1FA11D680F791F8A1F911DE6
:100EF000A11D6A0F711D811D911DA11D20D009F436
:100F000068943F912AE0269F11243019305D319377
:100F1000DEF6CF010895462F4770405D4193B3E060
:100F20000FD0C9F7F6CF462F4F70405D4A3318F007
:100F3000495D31FD4052419302D0A9F7EACFB4E0B8
:100F4000A6959795879577956795BA95C9F7009770
:100F50006105710508959B01AC010A2E0694579511
:100F6000479537952795BA95C9F7620F731F841F68
:100F7000951FA01D08952F923F924F925F926F92FE
:100F80007F928F929F92AF92BF92CF92DF92EF9219
:100F9000FF920F931F93CF93DF93CDB7DEB7CA1B9A
:100FA000DB0B0FB6F894DEBF0FBECDBF09942A88C5
:100FB000398848885F846E847D848C849B84AA846D
:100FC000B984C884DF80EE80FD800C811B81AA81FA
:100FD000B981CE0FD11D0FB6F894DEBF0FBECDBFC5
:080FE000ED010895F894FFCF24
:100FE8000D0A4F4B0D0A0041540041542B43495000
:100FF800434C4F53453D310041542B4349504D4FCD
:1010080044453D25640041542B43574D4F44453DCD
:1010180025640041542B4349504D55583D256400E3
:1010280041542B43574A41505F4355523D22257343
:10103800222C22257322000D0A5749464920434F86
:101048004E4E45435445440D0A002B43574A4150E0
:101058003A31002B43574A41503A32002B43574A02
:1010680041503A33002B43574A41503A34004154D7
:101078002B434950535441545553005354415455EC
:10108800533A32005354415455533A330053544160
:101098005455533A34005354415455533A35004348
:1010A80049504D55583A300041542B4349504D55FD
:1010B800583F0041542B43495053544152543D2208
:1010C800544350222C222573222C25730041542B83
:1010D80043495053544152543D222564222C2254F2
:1010E8004350222C222573222C257300434F4E4E49
:1010F8004543540D0A0041542B43495053454E442F
:101108003D2564000D0A4F4B0D0A3E000D0A53455C
:101118004E44204F4B0D0A0041542B434950534530
:10112800525645523D25642C2564007368697661E2
:101138006E736869312A00442D4C696E6B00623405
:10114800003830006170692E7468696E6773706565
:10115800616B2E636F6D00696E207768696C65003E
:1011680041434159415854365733534C4D564A42DE
:1011780000474554202F7570646174653F6170693C
:101188005F6B65793D2573266669656C64313D251D
:021198006400F1
:00000001FF
