S00D00004144435F312E73726563BF
S11300000C942A000C9434000C9434000C943400A6
S11300100C9434000C9434000C9434000C9434008C
S11300200C9434000C9434000C9434000C9434007C
S11300300C9434000C9434000C94F7000C943400A9
S11300400C9434000C9434000C9434000C9434005C
S11300500C94340011241FBECFE5D4E0DEBFCDBF25
S11300600E94EC000C9466010C940000982F907F81
S1130070946098BBEFE1FEE43197F1F700C0000013
S1130080C298F0E18F9FC0011124846088BB8FE186
S11300909EE40197F1F700C00000C2980895982FDC
S11300A0907F956098BBEFE1FEE43197F1F700C0D3
S11300B00000C2988295807F856088BB8FE19EE4B2
S11300C00197F1F700C00000C2980895CF93DF9321
S11300D0EC018881882331F021960E944F00899198
S11300E08111FBCFDF91CF91089581E00E9436000A
S11300F00895EF92FF920F931F93CF93DF93CDB7A1
S1130100DEB7C456D1090FB6F894DEBF0FBECDBF1B
S1130110009731F480E389831A8221E030E02AC019
S1130120992344F4919581959109D9F0EE24E394AF
S1130130F12C02C0E12CF12CFE01319620E030E0DC
S11301400AE010E02F5F3F4FB8010E942E01805D4E
S11301508193862F972F0097A9F7EA94EF2851F4FB
S113016002C020E030E0FE01E20FF31F8DE2818344
S11301702F5F3F4FE1E0F0E0EC0FFD1FE20FF31FB4
S11301801082CE0101960E945601CE0101960E9472
S11301906600CC59DF4F0FB6F894DEBF0FBECDBF5B
S11301A0DF91CF911F910F91FF90EF9008958FEF02
S11301B087BB82E00E94360088E20E9436008EE00F
S11301C00E94360086E00E94360081E00E943600DC
S11301D080E80E94360008950E94D700379A309A2A
S11301E0329A3D9A3E9A339A7894369AFFCF1F9268
S11301F00F920FB60F9211242F933F934F935F9357
S11302006F937F938F939F93AF93BF93CF93DF931A
S1130210EF93FF93C4B1D5B10E947500CE010E9443
S113022079002FEF81EE94E0215080409040E1F777
S113023000C00000369AFF91EF91DF91CF91BF91FA
S1130240AF919F918F917F916F915F914F913F916A
S11302502F910F900FBE0F901F90189597FB072EAC
S113026016F4009407D077FD09D00E94420107FCE0
S113027005D03EF4909581959F4F089570956195B2
S11302807F4F0895AA1BBB1B51E107C0AA1FBB1FC8
S1130290A617B70710F0A61BB70B881F991F5A950E
S11302A0A9F780959095BC01CD010895DC01FC016E
S11302B0672F71917723E1F7329704C07C916D9396
S11302C070836291AE17BF07C8F30895F894FFCF07
S9030000FC
