S01500004E6F6B6961353131305F4C43442E7372656324
S11300000C942A000C943F000C943F000C943F0085
S11300100C943F000C943F000C943F000C943F0060
S11300200C943F000C943F000C943F000C943F0050
S11300300C943F000C943F000C943F000C943F0040
S11300400C943F000C943F000C943F000C943F0030
S11300500C943F0011241FBECFE5D4E0DEBFCDBF1A
S113006014E0A0E6B0E0E8E1F2E002C005900D92F1
S1130070A234B107D9F70E94E7000C940A010C944A
S1130080000087B3806B87BBBE988DB181658DB945
S1130090C49808958FB9779BFECF8FB190E00895EF
S11300A0C0982FE780E295E0215080409040E1F72E
S11300B000C00000C09A0895C198C4980E944A00E4
S11300C0C19AC49A0895EF92FF920F931F93CF930E
S11300D0DF93C19AC498FC0101900020E9F731979D
S11300E0E81BF90B1E161F062CF5EC018C010E0FF4
S11300F01F1FE12CF12C888190E08097FC01EE0F0A
S1130100FF1FEE0FFF1FE80FF91FEE59FD4FEE0D15
S1130110FF1D80810E944A008FEFE81AF80A85E0EB
S1130120E816F10441F780E00E944A0021960C177A
S11301301D07F9F6C49ADF91CF911F910F91FF909B
S1130140EF900895CF93C62F0E945C008C2F0E94DD
S11301505C00CF910895CF93DF93C498C19AC8EF00
S1130160D1E080E00E944A002197D9F7C198C49A4F
S1130170DF91CF9108950E94500081E20E945C00BB
S113018080EC0E945C0087E00E945C0083E10E9496
S11301905C0080E20E945C008CE00E945C00089598
S11301A00F931F93CF93DF93C498C19AEC018C01F2
S11301B008501E4F89910E944A00C017D107D1F7F9
S11301C0C198C49ADF91CF911F910F91089587B37D
S11301D0836087BB0E9441000E94BB000E94AB0069
S11301E062E48CE80E94A20080E690E00E94630032
S11301F02FEF83ED90E3215080409040E1F700C061
S1130200000060E880E40E94A2008AE690E00E9478
S10B0210D000FFCFF894FFCFEA
S11302185052414E204C414253000000000000005F
S113022800000000000000000000000000000000C2
S113023800000000000000000000000000000000B2
S113024800000000000000000000000000000000A2
S11302580000000000000000000000000000000092
S11302680000000000000000000000000000000082
S11302780000000000000000000000000000000072
S11302880000000000000000000000000000000062
S11302988080808000000000000000000000000052
S11302A80000000000000000000000000000000042
S11302B80000000000000000000000000000000032
S11302C80000000000000000000000000000000022
S11302D80000000000000000000000000000000012
S11302E8003E7FFFF3E3E3F3FF7F3E0000000000DE
S11302F8000C1C1C0C0000000000000000000000A2
S113030800000000000000000000000000000000E1
S113031800000000000000000000000000000000D1
S113032800000000000000000000000000000000C1
S1130338000000000000000001038301000838F8F1
S1130348F8B8180800008000000000000000000051
S11303580000000000000000000000000000000091
S11303680000000000000000000000000000000081
S11303780000000000000000000000000000000071
S1130388000000000000000000000000000001035D
S11303980303030101010303030301000000000038
S11303A80000000000000000000000000000000041
S11303B80000000000000000000000000000000031
S11303C80000000000000000000000000000000021
S11303D80000000000000000000000000000000011
S11303E80000000000000000000000000000000001
S11303F800000000000000000000000000000000F1
S113040800000000000000000000000000000000E0
S11304180000000000000000005F00000007000763
S113042800147F147F14242A7F2A12231308646279
S113043836495522500005030000001C22410000E3
S113044841221C0014083E081408083E08080050FD
S11304583000000808080808006060000020100840
S113046804023E5149453E00427F400042615149E1
S1130478462141454B311814127F1027454545390B
S11304883C4A494930017109050336494949360648
S11304984949291E00363600000056360000081463
S11304A822410014141414140041221408020151A6
S11304B80906324979413E7E1111117E7F49494925
S11304C8363E414141227F4141221C7F49494941ED
S11304D87F090909013E4149497A7F0808087F00D4
S11304E8417F41002040413F017F081422417F4061
S11304F84040407F020C027F7F0408107F3E414148
S1130508413E7F090909063E4151215E7F091929A7
S113051846464949493101017F01013F4040403F76
S11305281F2040201F3F4038403F631408146307CE
S1130538087008076151494543007F41410002049E
S11305480810200041417F00040201020440404099
S11305584040000102040020545454787F48444425
S1130568383844444420384444487F385454541850
S1130578087E0901020C5252523E7F080404780096
S1130588447D40002040443D007F10284400004141
S11305987F40007C041804787C08040478384444B8
S11305A844387C14141408081414187C7C080404B3
S11305B8084854545420043F4440203C4040207C84
S11305C81C2040201C3C4030403C44281028440C4B
S11305D85050503C4464544C4400083641000000D8
S11305E87F000000413608001008081008784641CA
S10505F846783F
S9030000FC
